:030000000209AA48
:0C09AA00787FE4F6D8FD7581540209F155
:100AF000003F0006005B004F0066006D007D0007B0
:100B0000007F006F0077007C0039005E0079007183
:100B1000D4D4BED49FA9D4D4BED48E9FD4D46A7E5C
:100B20009FA9BE77777E9F8E9F0009030C0C0C183F
:100B300009030C0C0C1809030C0C0C0C0C09030C0D
:040B40000C0C180081
:100B44000108000F3843757272656E742054696D24
:100B540065202000100A536574204E65772054697F
:100B64006D652E2E2E00101C536574206E616F204F
:100B740054696D652E2E2E000A2D3E30303A3030E9
:100B84003A303000014C13014B14014A1301471E43
:100A9700E4F54DF54E120CF1E4F509120B95758945
:100AA70001D2AF758C3C758AB0D2A9D28CE54E6461
:100AB7000A454D7004F54DF54EE5097008AB49AD93
:100AC7004BAF4C8006AB1AAD2CAF48120A36AF4E6F
:100AD700AE4D120800E54CB54AD3E54BB547CEE518
:090AE70049B51BC912091D80C4A8
:100B95007F82120BE1E5097012F55174382551F881
:100BA500E6FF6037120C1A055180F0E509B4011310
:100BB500E4F551740A2551F8E6FF601F120C1A0579
:100BC5005180F0E509B40213E4F551741C2551F880
:0B0BD500E6FF6007120C1A055180F0CB
:010BE00022F2
:100A3600E5097005752D208003752D3EEF75F00ACA
:100A4600842430F52EEF75F00A84E5F02430F52F76
:100A5600ED75F00A842430F531ED75F00A84E5F081
:100A66002430F532EB75F00A842430F534EB75F05A
:100A76000A84E5F02430F5357FC3120BE1E4F55125
:100A8600742D2551F8E6FF6007120C1A055180F007
:010A9600223D
:100800008E4F8F5020902F7FE87E03120D2820906E
:1008100025E5097F2C7E017011120C8E854C4885D0
:100820004B2C85491A7509018006120C8E6337FF1F
:10083000120B953090FD20912E7FE87E03120D283B
:10084000209124E509601D120C8AE537700C0548DB
:10085000E548B4180FE4F548800A052CE52CB43CB3
:1008600003E4F52C3091FD20922C7FE87E03120DDD
:1008700028209222E509601B120C8AE537700BE5EF
:1008800048700375481815488009E52C7003752CCD
:100890003C152C3092FD20935D7FE87E03120D28DD
:1008A00020932BE509B4010F120C8A85484C852C46
:1008B0004B851A49E4F509E509B4020F120C8A8543
:1008C000484A852C47851A1BE4F5093093FD120B25
:1008D00095C3E550940AE54F6480948050187F409A
:1008E0007E42120D28AF50AE4F120CD70550E55086
:1008F00070DF054F80DB2094237FE87E03120D28F4
:10090000209419E509700F120C8A750902854A486E
:0D09100085472C851B1A120B953094FD2293
:040C8A007F2C7E013C
:040C8E008E518F52A2
:100C9200E4F553F554C3E5549552E5539551501379
:100CA200B2B07F0A7E00120D280554E55470E605A5
:030CB2005380E28A
:010CB500221C
:100D0A00EF1FAA0670011E4A600DE4FDC3ED648060
:070D1A0094F850EC0D80F588
:010D210022AF
:10091D00E4F54FF550742A2550F582740B354FF5DB
:10092D0083E493701074102550F582740B354FF5D8
:10093D0083E4936067E4FDFC742A2550F582740B03
:10094D00354FF583E49375F01EA4FFC3ED9FEC9531
:10095D00F0502EB2B0E4FFFE74102550F582740BEA
:10096D00354FF583E4931313543FFBC3EF9BEE9484
:10097D000050070FBF00010E80DE0DBD00010C8081
:10098D00B77F0A7E00120D0A0550E5507002054F23
:0C099D00AB49AD4BAF4C120A36020922E8
:0109A900222B
:03000B00020C5391
:100C5300C0E0C0D0758C3C758AB00508E508B414B3
:100C6300057508000549E549B43C05754900054B80
:100C7300E54BB43C05754B00054CE54CB4180375C6
:070C83004C00D0D0D0E0329C
:100CF1007F3C120BE17F0C120BE17F01120BE17FB4
:090D010006120BE17F80020BE1F8
:020BE1008F5231
:100BE300120CB68F535353807F027E00120D28E5FB
:100BF3005370EDC2A57F01FE120D28C2A6120D246B
:100C0300120D22855280120D24C2A7120D24D2A5E3
:070C13007F027E00020D28A4
:020C1A008F52F7
:100C1C00120CB68F535353807F027E00120D28E5C1
:100C2C005370EDC2A57F01FE120D28D2A6120D2421
:100C3C00120D22855280120D24C2A7120D24D2A5AA
:070C4C007F027E00020D286B
:060D2200D2A77F017E0054
:100D2800E4FDFCC3ED9FEC9E50070DBD00010C8057
:010D3800F2C8
:010D39002297
:100CB600D2A5120D24C2A6120D28D2A7120D28AB5A
:100CC60080120D28C2A7120D28C2A5120D28AF0347
:010CD60022FB
:100CD700EF25E0FFEE33FE74F02FF582740A3EF540
:0A0CE7008374019325E0FF8FB02213
:1009B600020A97E493A3F8E493A34003F68001F2B6
:1009C60008DFF48029E493A3F85407240CC8C33342
:1009D600C4540F4420C8834004F456800146F6DF11
:1009E600E4800B0102040810204080900B44E47E52
:1009F600019360BCA3FF543F30E509541FFEE49306
:100A0600A360010ECF54C025E060A840B8E493A3CC
:100A1600FAE493A3F8E493A3C8C582C8CAC583CAF7
:100A2600F0A3C8C582C8CAC583CADFE9DEE780BEAF
:010B94000060
:00000001FF
